S00A000076312E7372656373
S113000019C028C027C026C025C024C023C022C0D0
S113001021C020C01FC01EC01DC01CC01BC01AC0F0
S113002019C018C017C016C015C014C013C012C020
S113003011C010C011241FBECFEFCDBFDFE3DEBF60
S11300402EE3A0E0BEE301C01D92A030B207E1F7A9
S1130050B6D026C1D5CF9C0149E2469FC001479F37
S1130060900D11246FEF70E0F4D0695D7F4F233061
S11300703105B1F03CF42130310561F02230310515
S113008061F008952530310589F06CF02630310592
S113009081F0089560932C0A089560932A0A0895C4
S11300A06093280A089560932D0A089560932B0A9B
S11300B008956093290A0895F82FFF7320E030E033
S11300C0E0E018C04F2F50E0022E02C0559547952E
S11300D00A94E2F740FF0CC065E070E0621B730B0A
S11300E041E050E002C0440F551F6A95E2F7E42B4B
S11300F02F5F3F4F263031052CF3E0934404E0E2B8
S1130100F4E03085BC016078772776956795AC017B
S113011044275170529542954F7045275F7045278B
S1130120282F2074220F262B242B3F72232B248369
S1130130E0E0F4E02085AC014427527056954795E1
S11301405695479588279470929582958F70892744
S11301509F708927922F9F73842B892B8483089502
S1130160CF93DF93E0E0F2E0828184608283E0E079
S1130170FAE08FEF86A387A3C1E0D0E005C060E872
S113018070E0CE0168DF2196C730D105C4F3E0E00A
S1130190FAE08381816083838181876781838081A1
S11301A08D608083DF91CF91089588ED84BFE0E670
S11301B0F0E091E0918384BF82E0808B0895E0E0D9
S11301C0F4E08081886F8083E0E2F4E08081836FD3
S11301D08083E0E4F4E080818F638083E6DFC0DF26
S11301E078948BE393E568DFC0E0D0E00BC0BE01F8
S11301F081E090E030DF87EA91E60197F1F700C0F3
S113020000002196CF3FD10591F38CF39FEF28E0B6
S11302108DE3915020408040E1F700C00000CFEF13
S1130220D0E00BC0BE0181E090E015DF87EA91E6E3
S11302300197F1F700C000002197DD239CF79FEFA1
S113024028E08DE3915020408040E1F700C0000099
S1130250CBCF97FB072E16F4009406D077FD08D079
S11302600BD007FC05D03EF4909581959F4F0895DF
S1130270709561957F4F0895AA1BBB1B51E107C080
S1130280AA1FBB1FA617B70710F0A61BB70B881F22
S1130290991F5A95A9F780959095BC01CD010895B1
S10702A0F894FFCFFC
S9030000FC
