S00A000076312E7372656373
S113000019C033C032C031C030C02FC02EC02DC083
S11300102CC02BC02AC029C028C027C026C025C098
S113002024C023C022C0C8C020C01FC01EC01DC021
S11300301CC01BC011241FBECFEFCDBFDFE3DEBF4A
S11300401EE3A0E0BEE3E0E1F4E002C005900D92FF
S1130050A430B107D9F72EE3A4E0BEE301C01D929A
S1130060A931B207E1F797D1D1C1CACFE0E0F2E0FC
S1130070818180618183E0E1F8E083818E7F8383E5
S11300808FE6848781EE81878185816081870895E9
S113009083E080931A080895FC01218130E0322F17
S11300A022278281A901480F511DCA0108959C018C
S11300B049E2469FC001479F900D11246FEF70E005
S11300C07ED1695D7F4F23303105B1F03CF421309E
S11300D0310561F02230310561F008952530310594
S11300E089F06CF02630310581F0089560932C0A74
S11300F0089560932A0A08956093280A08956093E6
S11301002D0A089560932B0A08956093290A08958F
S1130110F82FFF7320E030E0E0E018C04F2F50E0EC
S1130120022E02C0559547950A94E2F740FF0CC091
S113013065E070E0621B730B41E050E002C0440FC5
S1130140551F6A95E2F7E42B2F5F3F4F26303105A8
S11301502CF3E0934404E0E2F4E03085BC016078E1
S1130160772776956795AC0144275170529542954F
S11301704F7045275F704527282F2074220F262BA8
S1130180242B3F72232B2483E0E0F4E02085AC0190
S113019044275270569547955695479588279470ED
S11301A0929582958F7089279F708927922F9F73CC
S11301B0842B892B848308951F920F920FB60F927C
S11301C011242F933F934F935F936F937F938F9358
S11301D09F93AF93BF93EF93FF9380911B0886FF88
S11301E022C080911B0880FF1EC052DF8091003E18
S11301F08823C9F080E090E005C0FC01EC5FF14C7D
S11302001082019680319105C4F381E090E08093DF
S1130210143E9093153E1092163E1092173E109283
S1130220003E1092183E80911B088823BCF48091F4
S11302301B0881FD13C02CDFE091163EF091173EA0
S113024080911D08EC5FF14C80838091163E909163
S1130250173E01968093163E9093173E80911B089B
S1130260882334F580911B0881FF22C09091183EA9
S11302708091013E981789F0E091183EF0E0EE5F1E
S1130280F14C8081E0E1F8E093E0928785878091EA
S1130290183E8F5F8093183E05C0E0E1F8E083E0EC
S11302A08287158688EC90E08093143E9093153EE7
S11302B080911B0886FF2FC080911B0880FD2BC0F6
S11302C08091163E9091173E0297FCF08091043E77
S11302D0882399F08091043E873078F48091043E1D
S11302E0823019F484E08093270484E09EE3D4DE12
S11302F0BC018091043E90E0DADE8091043E8111DD
S113030004C084E09EE3C8DE03DF81E08093003E06
S113031082E080931A08FF91EF91BF91AF919F9172
S11303208F917F916F915F914F913F912F910F909A
S11303300FBE0F901F901895CF93DF93E0E0F2E08B
S1130340828184608283E0E0FAE08FEF86A387A352
S1130350C1E0D0E005C060E870E0CE01A8DE2196DF
S1130360C730D105C4F3E0E0FAE083818160838380
S113037081818767818380818D608083DF91CF91C4
S1130380089588ED84BFE0E6F0E091E0918384BFB6
S113039082E0808B0895E0E0F4E08081886F8083C0
S11303A0E0E2F4E08081876F8083E0E4F4E0808120
S11303B08F6380835BDEE5DFBFDF7894FFCF97FB3D
S11303C0072E16F4009406D077FD08D00BD007FC56
S11303D005D03EF4909581959F4F08957095619551
S11303E07F4F0895AA1BBB1B51E107C0AA1FBB1F67
S11303F0A617B70710F0A61BB70B881F991F5A95AD
S1130400A9F780959095BC01CD010895F894FFCF8C
S107041001050001DD
S9030000FC
